{
  "transactions": [
    {
      "hash": "0x7a703fc42071f3f40da904d93361f19aa18c72dd2bc57a2b309e9f60668dcb62",
      "transactionType": "CALL",
      "contractName": null,
      "contractAddress": "0x779877A7B0D9E8603169DdbD7836e478b4624789",
      "function": "transferAndCall(address,uint256,bytes)",
      "arguments": [
        "0x9DdfaCa8183c41ad55329BdeeD9F6A8d53168B1B",
        "3000000000000000000",
        "0x3d640de036e0b3e205d3f59956753ededf755e15b3d9c3bc64cb80f49edf7a34"
      ],
      "transaction": {
        "from": "0x0Abc0Cfa05c66A1d13bB67a31c3d93A0d8DAacBE",
        "to": "0x779877A7B0D9E8603169DdbD7836e478b4624789",
        "gas": "0x14cbb",
        "value": "0x0",
        "input": "0x4000aea00000000000000000000000009ddfaca8183c41ad55329bdeed9f6a8d53168b1b00000000000000000000000000000000000000000000000029a2241af62c0000000000000000000000000000000000000000000000000000000000000000006000000000000000000000000000000000000000000000000000000000000000203d640de036e0b3e205d3f59956753ededf755e15b3d9c3bc64cb80f49edf7a34",
        "nonce": "0xb",
        "chainId": "0xaa36a7"
      },
      "additionalContracts": [],
      "isFixedGasLimit": false
    }
  ],
  "receipts": [
    {
      "status": "0x1",
      "cumulativeGasUsed": "0x970f5b",
      "logs": [
        {
          "address": "0x779877A7B0D9E8603169DdbD7836e478b4624789",
          "topics": [
            "0xddf252ad1be2c89b69c2b068fc378daa952ba7f163c4a11628f55a4df523b3ef",
            "0x0000000000000000000000000abc0cfa05c66a1d13bb67a31c3d93a0d8daacbe",
            "0x0000000000000000000000009ddfaca8183c41ad55329bdeed9f6a8d53168b1b"
          ],
          "data": "0x00000000000000000000000000000000000000000000000029a2241af62c0000",
          "blockHash": "0x51e6fa109e438de010792035b103fad9a4979365c319e3504763786e0001352f",
          "blockNumber": "0x6985d4",
          "transactionHash": "0x7a703fc42071f3f40da904d93361f19aa18c72dd2bc57a2b309e9f60668dcb62",
          "transactionIndex": "0x54",
          "logIndex": "0x8f",
          "removed": false
        },
        {
          "address": "0x779877A7B0D9E8603169DdbD7836e478b4624789",
          "topics": [
            "0xe19260aff97b920c7df27010903aeb9c8d2be5d310a2c67824cf3f15396e4c16",
            "0x0000000000000000000000000abc0cfa05c66a1d13bb67a31c3d93a0d8daacbe",
            "0x0000000000000000000000009ddfaca8183c41ad55329bdeed9f6a8d53168b1b"
          ],
          "data": "0x00000000000000000000000000000000000000000000000029a2241af62c0000000000000000000000000000000000000000000000000000000000000000004000000000000000000000000000000000000000000000000000000000000000203d640de036e0b3e205d3f59956753ededf755e15b3d9c3bc64cb80f49edf7a34",
          "blockHash": "0x51e6fa109e438de010792035b103fad9a4979365c319e3504763786e0001352f",
          "blockNumber": "0x6985d4",
          "transactionHash": "0x7a703fc42071f3f40da904d93361f19aa18c72dd2bc57a2b309e9f60668dcb62",
          "transactionIndex": "0x54",
          "logIndex": "0x90",
          "removed": false
        },
        {
          "address": "0x9DdfaCa8183c41ad55329BdeeD9F6A8d53168B1B",
          "topics": [
            "0x1ced9348ff549fceab2ac57cd3a9de38edaaab274b725ee82c23e8fc8c4eec7a",
            "0x3d640de036e0b3e205d3f59956753ededf755e15b3d9c3bc64cb80f49edf7a34"
          ],
          "data": "0x000000000000000000000000000000000000000000000000000000000000000000000000000000000000000000000000000000000000000029a2241af62c0000",
          "blockHash": "0x51e6fa109e438de010792035b103fad9a4979365c319e3504763786e0001352f",
          "blockNumber": "0x6985d4",
          "transactionHash": "0x7a703fc42071f3f40da904d93361f19aa18c72dd2bc57a2b309e9f60668dcb62",
          "transactionIndex": "0x54",
          "logIndex": "0x91",
          "removed": false
        }
      ],
      "logsBloom": "0x00000004000000000000000000000000000000000020000000000000020000004000000000000000000000000000000000000000000000000000000000000000000000000000000000000408000000000000000000000000000020000020000008000000000000000000000000000000000000000000000000000010000040000000000000000000000000050000800000000020000000000000000000000000000000000000000000000000010000000000000000002000000004000000000000010002000000000000000000000000000000000000000100000040000000000010000000000000800000000000000000000000000000000000000000000000",
      "type": "0x2",
      "transactionHash": "0x7a703fc42071f3f40da904d93361f19aa18c72dd2bc57a2b309e9f60668dcb62",
      "transactionIndex": "0x54",
      "blockHash": "0x51e6fa109e438de010792035b103fad9a4979365c319e3504763786e0001352f",
      "blockNumber": "0x6985d4",
      "gasUsed": "0xf0e5",
      "effectiveGasPrice": "0x4b23581d1",
      "from": "0x0Abc0Cfa05c66A1d13bB67a31c3d93A0d8DAacBE",
      "to": "0x779877A7B0D9E8603169DdbD7836e478b4624789",
      "contractAddress": null
    }
  ],
  "libraries": [],
  "pending": [],
  "returns": {},
  "timestamp": 1729503808,
  "chain": 11155111,
  "commit": "32adb92"
}